:100000000C9491010C94B9010C94B9010C94DA0987
:100010000C94DA090C94DA090C94B9010C94B90126
:100020000C94B9010C94B7070C94B9010C94B90164
:100030000C94B9010C94B9010C94B9010C94B90158
:100040000C948B160C94B9010C94D6190C94081AC4
:100050000C94B9010C94B9010C94B9010C94B90138
:100060000C942F0C0C94B9014115701544157015A2
:100070007015751563157015701575157015751556
:1000800066157015691570156C1557324420436F4D
:100090006E74726F6C204D6F746F72203D2000572C
:1000A000324420436F6E74726F6C204C45445F4243
:1000B000203D200057324420436F6E74726F6C20D5
:1000C0004C45445F47203D200057324420436F6E2B
:1000D00074726F6C204C45445F52203D2000536584
:1000E000744C4544204C45445F50696E6B00536529
:1000F000744C4544204C45445F507572706C6500EB
:100100005365744C4544204C45445F59656C6C6F95
:1001100077005365744C4544204C45445F436F73EE
:10012000746F6D005365744C45445F4F6E005365AA
:10013000744C45445F4F666600667265654D656D3B
:100140006F727928293D00476F4B697420696E6989
:100150007420204F4B21004B4559325F4C4F4E4786
:100160005F5052455353202C4169724C696E6B208D
:100170006D6F6465004B4559325F53484F52545F71
:10018000505245535320536F6674204150206D6F79
:100190006465004B4559315F4C4F4E475F505245A7
:1001A0005353202C57696669205265736574004B60
:1001B0004559315F53484F52545F50524553530095
:1001C00041434B203A204572726F72212000414317
:1001D0004B203A204572726F725F4F7468657220CF
:1001E0004F4B0041434B203A204572726F725F4380
:1001F0006D64204F4B0041434B203A204572726F93
:10020000725F41636B53756D204F4B004572726F87
:1002100072203A005732445F5265717565737452AB
:10022000657365744465766963652E2E2E004143BF
:100230004B3A20535543434553532D2D6275742D2E
:100240002D54696D65206F757421202E2E2E00416E
:10025000434B3A205265706F727420416761696E3A
:1002600021202E2E2E0041434B3A20535543434527
:10027000535321202E2E2E005B526573656E642031
:1002800041434B202D2D3E2054696D65202F204E7B
:10029000756D3A2000476976652075702052657348
:1002A000656E64210020474167656E74546F4D434D
:1002B000553A005D005B005B54696D653A200000B3
:1002C0000000080002010000030407000000000015
:1002D0000000000102040810204080010204081000
:1002E000200102040810200404040404040404028D
:1002F00002020202020303030303030000000023BF
:10030000002600290000000000250028002B000026
:10031000000000240027002A00005505020C381AAE
:100320006A0511241FBECFEFD8E0DEBFCDBF11E0BC
:10033000A0E0B1E0ECEFFFE302C005900D92A03F1A
:10034000B107D9F726E0A0EFB1E001C01D92A839AE
:10035000B207E1F713E0C0E2D3E004C02297FE0148
:100360000E945F1ECA31D107C9F70E947C1A0C9403
:10037000F11F0C9400000F931F93CF93DF938C0118
:10038000EB0160E086E292E00E9439060E94EB1CDD
:10039000F801608386E292E00E94AD060E94EB1CA9
:1003A0006883DF91CF911F910F91089582E00E94A1
:1003B000681821E0892B09F020E0822F08950F931F
:1003C000262F042F482F60E081E292E00E945B0814
:1003D0000F910895CF93DF93EC018530910551F48F
:1003E00060E084E00E94321860E085E0DF91CF9108
:1003F0000C9432188630910550F060E084E00E9441
:10040000321863E3C69FC02D1124CF5F08C061E09E
:1004100084E00E94321863E3C69FC02D11246C2F24
:1004200070E085E0DF91CF910C94711761E084E07A
:100430000E94F91761E085E00E94F91760E085E00D
:100440000E94321860E084E00E94321885E090E05B
:100450000C94EA010E94D51628EE33E040E050E00B
:100460000E941C1ECA01B9010895CF92DF92EF923B
:10047000FF9286E00E946818892B09F03FC064E66D
:1004800070E080E090E00E94041786E00E94681807
:10049000892BA1F50E942A026B017C0186E00E9453
:1004A0006818892BB9F40E942A026C197D098E09FB
:1004B0009F09643071058105910580F30E942A022D
:1004C000609336027093370280933802909339021A
:1004D00022E015C00E942A02C0903602D090370256
:1004E000E0903802F09039026C197D098E099F095D
:1004F00021E0643071058105910508F420E0822F28
:10050000FF90EF90DF90CF900895CF92DF92EF921F
:10051000FF9287E00E946818892B09F040C064E6CA
:1005200070E080E090E00E94041787E00E94681865
:10053000892BA9F50E942A026B017C0187E00E94A9
:100540006818892BB9F40E942A026C197D098E095A
:100550009F09643071058105910580F30E942A028C
:100560006093360270933702809338029093390279
:1005700088E016C00E942A02C0903602D09037024E
:10058000E0903802F09039026C197D098E099F09BC
:10059000643071058105910510F084E001C080E0B0
:1005A000FF90EF90DF90CF900895CF930E94850247
:1005B000C82F0E9435028C2BCF9108950E94D5023E
:1005C000823079F01CF4813031F00895843089F064
:1005D0008830E1F008956FEA71E082E092E00C94D7
:1005E0000B1B63E971E082E092E00E940B1B0C940C
:1005F000341265E771E082E092E00E940B1B40E05C
:1006000060E08AE00E94DF0181E00CC067E571E0F4
:1006100082E092E00E940B1B40E06AE080E00E94D2
:10062000DF0182E00E94B11281E080933A020895D6
:1006300085FF11C080913A02813069F466E071E073
:1006400082E092E00E941D1B10923A0240E060E0BE
:1006500080E00C94DF01089540E855E260E070E02E
:1006600082E092E00E94DD0A86E292E00E94790533
:1006700081E292E00E94C80861E08EE00E94321898
:1006800062E086E00E94F91762E087E00E94F917B5
:100690000E94160240E060E080E00E94DF018BE0F3
:1006A000E0EFF1E0DF011D928A95E9F785E090E047
:1006B0000E94050E9093F5018093F40187E0EBEF23
:1006C000F1E0DF011D928A95E9F78BE00C94310E81
:1006D0000E942C0367E471E082E092E00E940B1B11
:1006E00069E371E082E092E00E94C91A0E94F2067A
:1006F0004AE050E0BC0182E092E00C94DA1B809169
:10070000FB0180FF31C080913B02813069F1809113
:10071000FC01811112C040E060E00E94DF011092F4
:10072000F0016EE271E082E092E00E94C91A6EED83
:1007300071E082E092E00E941D1B8091FC018130FB
:1007400099F48093F00140E060E08EEF0E94DF01B9
:1007500064E271E082E092E00E94C91A6EED71E0FD
:1007600082E092E00E941D1B8091FB0181FF82C00C
:100770008091FC0181111AC01092F0011092F101D8
:100780001092F2011092F30110923B0240E060E0FF
:100790000E94DF0162E171E082E092E00E94C91AEA
:1007A0006EED71E082E092E00E941D1B8091FC01E1
:1007B0008230E1F491E090933B028093F0018EEF60
:1007C0008093F1018093F2011092F30140E06EEF0B
:1007D0000E94DF0160E071E082E092E00E94C91AAD
:1007E0006EED71E082E092E00E941D1B8091FC01A1
:1007F0008430F1F48093F0018EEF8093F101109238
:10080000F20186E48093F30181E080933B0246E4A9
:1008100060E08EEF0E94DF016EEE70E082E092E019
:100820000E94C91A6EED71E082E092E00E941D1BE9
:100830008091FC018630F1F48093F0018EEE80937C
:10084000F1018EE18093F2018093F30181E08093C6
:100850003B024EE16EE18EEE0E94DF016EED70E034
:1008600082E092E00E94C91A6EED71E082E092E0AF
:100870000E941D1B8091FB0182FF24C080913B02DE
:10088000813001F18091FD018093F10169EC70E00C
:1008900082E092E00E94C91A40E150E06091FD01BF
:1008A00082E092E00E94FF1B6EED71E082E092E038
:1008B0000E941D1B4091F3016091F2018091F101B2
:1008C0000E94DF018091FB0183FF24C080913B02E5
:1008D000813001F18091FE018093F20164EB70E0C0
:1008E00082E092E00E94C91A40E150E06091FE016E
:1008F00082E092E00E94FF1B6EED71E082E092E0E8
:100900000E941D1B4091F3016091F2018091F10161
:100910000E94DF018091FB0184FF24C080913B0293
:10092000813001F18091FF018093F3016FE970E064
:1009300082E092E00E94C91A40E150E06091FF011C
:1009400082E092E00E94FF1B6EED71E082E092E097
:100950000E941D1B4091F3016091F2018091F10111
:100960000E94DF018091FB0185FF29C08091000278
:10097000909101029093F5018093F4016AE870E090
:1009800082E092E00E94C91A8091000290910102D7
:100990000E94050E40E150E0BC0182E092E00E941E
:1009A000D21B6EED71E082E092E00E941D1B8091EF
:1009B0000002909101020E94050E0C94EA01089534
:1009C000CF93DF9300D0CDB7DEB70E94D6018093DE
:1009D000F601BE016F5F7F4FCE0102960E94BB0100
:1009E0004A818091350290E0840F911D95958795FD
:1009F00099812091340230E0290F311D35952795DA
:100A00002093F801835F8093F70140933502909320
:100A100034020F900F90DF91CF9108950F93CF93F1
:100A2000DF93CDB7DEB7DA950FB6F894DEBF0FBE11
:100A3000CDBF0E94DE0267E0CE0101960E94C11484
:100A4000811116C087E0FE013196ABEFB1E0019055
:100A50000D928A95E1F70E947F0300913A0221E00E
:100A600040EC57E260E070E080EF91E00E942F13CD
:100A700080913C02882321F00E94E00410923C0205
:100A800000913A0220E040EC57E260E070E080EF35
:100A900091E00E942F13D3950FB6F894DEBF0FBEDE
:100AA000CDBFDF91CF910F91089526E04BE063E039
:100AB00086E292E00E94720521E042E163E181E278
:100AC00092E00E94E10720E049E068E082E092E0E5
:100AD0000C94AD0A82E092E00E94540A81E292E016
:100AE0000C94F407FC0166834783208781E08587A7
:100AF0000895CF93DF93EC0160E08E810E94F91797
:100B000061E08E810E94321819861A861B861C8627
:100B1000DF91CF910895DF92EF92FF920F931F9391
:100B2000CF93DF93EC010E94D51609851A852B859A
:100B30003C85601771078207930720F419861A868F
:100B40001B861C862D85211111C009851A852B85D0
:100B50003C85DC01CB01801B910BA20BB30B803DCC
:100B60009740A105B10510F481E07BC01D860E946D
:100B7000D51669877A878B879C871C821B821A828D
:100B80001982188261E08E810E9432186AEF70E04B
:100B900080E090E00E94041761E08E810E94F917C6
:100BA00060E08E810E94321864E170E080E090E0A5
:100BB0000E940417F89461E08E810E94321888E246
:100BC00090E00E942C1760E08E810E94F917F12CB2
:100BD000D12C81E0E12C082F10E08E810E94681852
:100BE0008017910741F4E39481E090E00E942C1774
:100BF0008FEFE812F2CF8E810E9468189FEFE916FE
:100C0000C9F023E02F1590F4F0FC10C09D2D9695AF
:100C100096959695FE01E90FF11D9081990F9083AD
:100C200028852E1510F491609083D394F39495E564
:100C3000F912D0CF789427E22D1590F42C8130E072
:100C40004881898190E0840F911D4A81840F911D14
:100C50004B81840F911D99272817390709F484CFF8
:100C600080E0DF91CF911F910F91FF90EF90DF9087
:100C70000895CF92DF92EF92FF920F931F93CF933D
:100C8000DF93EC01162F0E948B05882309F450C0D6
:100C90008F818B3031F008F44BC08551823078F071
:100CA00047C06A8170E080E090E00E94171D112328
:100CB00009F443C020E030E040E151E42AC00A8159
:100CC000602F6F7770E080E090E00E94191D20E0B7
:100CD00030E040E853E40E94A51D6B017C016B816C
:100CE00070E080E090E00E94191D9B01AC01C701FB
:100CF000B6010E941F1C20E030E040E251E40E9457
:100D0000831C07FD90581123D9F020E030E040E12A
:100D100051E40E94A51D20E030E040EA50E40E942A
:100D2000831C20E030E040E052E40E941F1C08C019
:100D300020E030E040EC5FE705C09B01AC0102C061
:100D40009B01AC01B901CA01DF91CF911F910F91B5
:100D5000FF90EF90DF90CF900895CF92DF92EF92C7
:100D6000FF92CF93DF93EC010E948B05882379F1EA
:100D70008F818B3029F158F18551823040F568819F
:100D800070E080E090E00E94171D20E030E040E835
:100D900053E40E94A51D6B017C01698170E080E035
:100DA00090E00E94191D9B01AC01C701B6010E9491
:100DB0001F1C20E030E040E251E40E94831C0BC085
:100DC000688170E080E090E00E94171D04C060E040
:100DD00070E080EC9FE7DF91CF91FF90EF90DF9084
:100DE000CF900895CF93DF9300D0CDB7DEB7809139
:100DF0009406909195069E012F5F3F4F009719F43E
:100E00002859364002C0281B390B3A83298389812F
:100E10009A810F900F90DF91CF9108956115710520
:100E20008105910569F481E090E0A0E0B0E0809355
:100E3000460290934702A0934802B093490208C02B
:100E40006093460270934702809348029093490250
:100E50005093450240934402809170008E7F8093AE
:100E600070008091B0008C7F8093B0008091B100C1
:100E7000877F8093B1008091B6008F7D8093B6000C
:100E8000809170008D7F809370008091B1008460AC
:100E90008093B1008091B1008C7F8093B10086E097
:100EA00090E090933E0280933D020895109240029C
:100EB00010924102109242021092430210923F029D
:100EC00080913D0290913E028093B200E0E7F0E015
:100ED00080818160808308958091400290914102D9
:100EE000A0914202B09143020196A11DB11D8093D1
:100EF000400290934102A0934202B093430280913A
:100F0000400290914102A0914202B091430240916F
:100F1000460250914702609148027091490284173D
:100F20009507A607B70710F180913F0281111EC0F7
:100F300081E080933F028091400290914102A09114
:100F40004202B0914302841B950BA60BB70B809312
:100F5000400290934102A0934202B0934302E09179
:100F60004402F0914502099510923F0208951F92A4
:100F70000F920FB60F9211242F933F934F935F93CD
:100F80006F937F938F939F93AF93BF93EF93FF9351
:100F900080913D0290913E028093B2000E946C07C6
:100FA000FF91EF91BF91AF919F918F917F916F9141
:100FB0005F914F913F912F910F900FBE0F901F9017
:100FC0001895CF93DF93EC01688349832A8361E00E
:100FD00070E033E0239FC00111240E94911E9C8386
:100FE0008B83DF91CF910895FC01838194810C94D0
:100FF000451FCF93DF93EC0160E088810E94321897
:1010000084E190E00E942C1761E088810E943218F0
:1010100084E190E0DF91CF910C942C170F931F93F4
:10102000CF93DF93EC01062F18E007FF02C061E0C9
:1010300001C060E089810E943218CE010E94F90748
:10104000000F115091F7DF91CF911F910F910895EB
:10105000EF92FF921F93CF93DF9300D0CDB7DEB70F
:101060007C01162F27FF02C060EC01C060EE26FF56
:10107000606147FF686046FF646017FF626016FFAB
:101080006160C70129834A830E940E082981622F6B
:10109000C7010E940E084A81642FC7010E940E08F2
:1010A000612FC7010F900F90DF91CF911F91FF909B
:1010B000EF900C940E087F928F929F92AF92BF9206
:1010C000CF92DF92EF92FF920F931F93CF93DF9314
:1010D000EC01162F942E822E60E00E940E0860E034
:1010E000CE010E940E0860E0CE010E940E0860E072
:1010F000CE010E940E0883E0189F70011124670141
:101100008FEFC81AD80A570182E0A80EB11C712CC3
:101110008A81781600F571120FC0EB81FC81EE0D0B
:10112000FF1D9082EB81FC81EC0DFD1D8082EB8127
:10113000FC81EA0DFB1D0083EB81FC8183E0789E3E
:10114000E00DF11D1124228141816081CE010E94B8
:1011500028087394DDCF60E0CE010E940E0860E0A5
:10116000CE010E940E0860E0CE010E940E0860E0F1
:10117000CE01DF91CF911F910F91FF90EF90DF9003
:10118000CF90BF90AF909F908F907F900C940E085F
:101190000F931F93CF93DF93EC0161E088810E944E
:1011A000F91761E089810E94F91710E08A81181708
:1011B00048F400E020E040E0612FCE010E945B088F
:1011C0001F5FF4CFDF91CF911F910F910895209170
:1011D0008C0230918D0228173907B9F490914A0298
:1011E00080914B02981789F0E0914A02F0E0E45BAD
:1011F000FD4F808120914A0230E02F5F3F4F2F73D7
:10120000332720934A0290E008958FEF9FEF0895CF
:101210001F93CF93DF93DC015C968D919C915D973A
:10122000009749F481E090E013969C938E93129777
:1012300080E090E03BC05196ED91FC915297509622
:101240002C915097322F30951FB75E964C915E9738
:1012500041FB772770F941FD6095F8944081772331
:1012600011F0422B01C043234083EC012197F1F799
:1012700048E0508160FF02C0522B01C053235083CD
:10128000EC012197F1F76695415099F7808177231A
:1012900011F0832301C0822B80831FBF5C968D9148
:1012A0009C915D970197F1F781E090E0DF91CF91FC
:1012B0001F91089520918C0230918D0228173907D3
:1012C00081F490914A0280914B02981751F0E0917D
:1012D0004A02F0E0E45BFD4F8081992787FD9095FD
:1012E00008958FEF9FEF089520918C0230918D0229
:1012F0002817390771F480914B0220914A0290E03F
:10130000805C9F4F821B910960E470E00E94081E80
:10131000089580E090E0089520918C0230918D0234
:101320002817390739F48FB7F89410924B021092AE
:101330004A028FBF0895E0918C02F0918D02E81768
:10134000F90769F4A389B4899C91858980958923DB
:101350008C9310928D0210928C0281E0089580E0AF
:101360000895CF93DF93EC018A8D9B8D892BF1F04B
:1013700080918C0290918D028C179D07B9F0009797
:1013800011F00E949B098E8D8E7F8E8F10924B02E2
:1013900010924A02D0938D02C0938C02EB89FC8993
:1013A00080819D89892B808381E001C080E0DF916D
:1013B000CF9108951F920F920FB60F9211242F9381
:1013C0003F934F935F936F937F938F939F93AF93CD
:1013D000BF93EF93FF93E0918C02F0918D023097D1
:1013E00009F451C0868DA685B785958581FF04C017
:1013F0008C91892329F447C08C91892309F043C03B
:10140000A389B4899C918589809589238C93868949
:1014100097890197F1F7208D318DA685B785758560
:1014200058E040E0C9010197F1F7842F90E09595CD
:101430008795482F6C91672309F04068515091F7C8
:10144000868D81FD409580914B0290E001968F73CF
:10145000992720914A02281749F0A0914B02B0E049
:10146000A45BBD4F4C9380934B0203C0868D81607B
:10147000868F828D938D0197F1F7A389B4898C9122
:101480009589892B8C93FF91EF91BF91AF919F919B
:101490008F917F916F915F914F913F912F910F901D
:1014A0000FBE0F901F9018952FE131E0FC013183A2
:1014B00020830C949B091F93CF93DF93EC01162F8D
:1014C0006E8D6695617081E06827812F0E943218C9
:1014D00061E0812F0E94F917812F90E0FC01ED520D
:1014E000FD4FE491E88BFC01E951FD4FE491F0E000
:1014F000EE0FFF1FEB5FFC4F859194919A8B898BC8
:10150000DF91CF911F9108951F93CF93DF93EC014B
:10151000162F60E0812F0E94F9178E8D81FD04C087
:1015200061E0812F0E9432181C87812F90E0FC011E
:10153000ED52FD4FE491ED87FC01E951FD4FE4913F
:10154000F0E0EE0FFF1FE550FD4F859194919F87CE
:101550008E87DF91CF911F910895FF920F931F9374
:10156000CF93DF93EC01F62E522F1B821A8208EEE6
:1015700013E020E030E00C831D832E833F838FE156
:1015800091E0998388831F8A1E8A198E188E1B8E7C
:101590001A8E1D8E1C8E8E8D8E7F50FB81F98E8F44
:1015A000642FCE010E945B0A6F2DCE01DF91CF9197
:1015B0001F910F91FF900C94840ACF93DF93EC015D
:1015C0009A01AB011B8E1A8E198E188E1F8A1E8AE5
:1015D00060E079E08DE390E00E943E1EC901243076
:1015E000310520F0B9016350710902C061E070E07B
:1015F0007D8F6C8FEC85E63108F068C0B901769577
:1016000067956431710518F06351710902C061E09A
:1016100070E07F8B6E8B069718F0C901059702C0AA
:1016200081E090E0998F888FC901880F991F820F00
:10163000931F96958795969587958D30910510F017
:101640000C9702C081E090E09B8F8A8F2091680008
:10165000E83050F091E0EE3008F490E081E001C015
:10166000880F9A95EAF701C084E0822B8093680086
:101670002C85283038F02E3040F0263148F48CE6A6
:1016800090E008C08DE690E005C08BE690E002C0D7
:1016900080E090E09C8B8B8B283030F481E001C09F
:1016A000880F2A95EAF70DC0822F90E02E3010F4B3
:1016B000089701C00E9791E001C0990F8A95EAF74B
:1016C000892F8D8B8C8D9D8D0197F1F7CE01DF9148
:1016D000CF910C94B1098091BD0290E02091BE029F
:1016E000821B910908952091BE028091BD022817A6
:1016F00050F4E22FF0E0E154FD4F808190E02F5F45
:101700002093BE0208958FEF9FEF0895E091BE02EF
:101710008091BD02E81730F4F0E0E154FD4F808184
:1017200090E008958FEF9FEF08950895CF92DF9294
:10173000EF92FF920F931F93CF93DF937C01CB0126
:101740008A0120919A02222389F0EB016B01C40ED9
:10175000D51ECC15DD0569F06991D701ED91FC919D
:101760000190F081E02DC7010995F3CF642F0E940D
:10177000060CC801DF91CF911F910F91FF90EF9060
:10178000DF90CF900895CF93DF931F92CDB7DEB750
:10179000698320919A022223D1F020919B0220326A
:1017A00040F021E030E0FC013383228380E090E0D0
:1017B00015C080919C02E82FF0E0E356FD4F99811F
:1017C00090838F5F80939C0280939B0205C061E0B1
:1017D000CE0101960E94060C81E090E00F90DF910F
:1017E000CF910895FC011382128248EE53E060E02D
:1017F00070E044835583668377838FE291E0918321
:10180000808308958EE892E00C94F20B613298F494
:1018100020914C03243089F460930103FC0183E0A0
:1018200093E0DC012A2F281B261718F421912D9311
:10183000F9CF80E0089581E0089582E0089585ED74
:101840008093BC008091BC0084FDFCCF10924C03BF
:10185000089585EC8093BC0010924C0308951F926C
:101860000F920FB60F9211242F933F934F935F93D4
:101870006F937F938F939F93AF93BF93EF93FF9358
:101880008091B900887F803609F49CC068F5883261
:1018900009F45BC090F4803109F454C038F4882313
:1018A00009F4F5C0883009F44DC0F5C0883109F459
:1018B0004CC0803209F45DC0EEC0803409F468C0C9
:1018C00048F4803309F455C0883309F0E4C08093AC
:1018D000DF02A8C0803509F44FC0883509F45DC027
:1018E000883409F0D8C0D5C0883909F4C6C0A8F436
:1018F000883709F467C038F4883609F463C0803744
:1019000009F460C0C8C0883809F4B7C0803909F448
:101910005FC0803809F0BFC05BC0803B09F485C060
:1019200038F4803A09F466C0883A09F47EC0B3C03E
:10193000803C09F4A6C0883C09F4A3C0883B09F4A4
:1019400089C0A9C080914B0310C09091240380915D
:101950002303981770F5E091240381E08E0F8093A4
:101960002403F0E0EB5DFC4F80818093BB0085ECAD
:1019700085C08093DF028DC0E091240381E08E0F4B
:10198000809324038091BB00F0E0EB5DFC4F8083EB
:1019900090912403809123036DC0E091240381E0A2
:1019A0008E0F809324038091BB00F0E0EB5DFC4F31
:1019B000808380914A0381116CC081E08093490348
:1019C00084EA60C083E080934C031092E002CFCFA2
:1019D0008091E002803208F050C0E091E00281E0A6
:1019E0008E0F8093E0028091BB00F0E0EF51FD4F3D
:1019F0008083BDCF8091E002803230F4E091E0023C
:101A0000F0E0EF51FD4F10820E941F0C6091E00248
:101A100070E0E0914503F091460381EE92E0099574
:101A20001092E0020E94290C36C084E080934C039F
:101A30001092020310920103E0914703F0914803D2
:101A4000099580910103811105C081E08093010314
:101A500010920303E091020381E08E0F8093020352
:101A6000F0E0ED5FFC4F80818093BB00909102031A
:101A700080910103981708F47ACF85E88093BC0021
:101A80000AC085EC8093BC0010924C0304C01092F5
:101A9000DF020E941F0CFF91EF91BF91AF919F91C8
:101AA0008F917F916F915F914F913F912F910F9007
:101AB0000FBE0F901F90189580916A0490916B044F
:101AC000A0916C04B0916D040196A11DB11D80938D
:101AD0006A0490936B04A0936C04B0936D0480919E
:101AE0004F03909150030196883E23E0920728F41B
:101AF0009093500380934F030895109250031092D7
:101B00004F0381E080933C020895DC01ED91FC914C
:101B10000190F081E02D0994CF93DF938091D90457
:101B2000813009F06EC02091DE0430E080918D0597
:101B300090E001972817390709F063C09091DF04FE
:101B400080918E0598135DC08091D804823008F092
:101B50004FC067EB72E082E092E00E94C91AC4EDC8
:101B6000D4E040916A0450916B0460916C047091D0
:101B70006D048091D4049091D504A091D604B091C5
:101B8000D704481B590B6A0B7B0B2AE030E082E03C
:101B900092E00E94F21B6BE371E082E092E00E940F
:101BA000EE1A80916A0490916B04A0916C04B0913C
:101BB0006D044091D4045091D5046091D604709185
:101BC000D704841B950BA60BB70B883C9105A10588
:101BD000B10538F48AE6DE011D928A95E9F781E0C5
:101BE00011C08AE6FE0111928A95E9F783E00AC0E6
:101BF0008AE6E4EDF4E0DF011D928A95E9F780E0E2
:101C000001C084E0DF91CF910895CF93DF9300D09E
:101C100000D0CDB7DEB79C838B838C8189838B8189
:101C20008A8389819A810F900F900F900F90DF9196
:101C3000CF910895009799F01616170684F4FC01C9
:101C4000329640E0615071099F01281B390B26171D
:101C500037071CF42191420FF7CF842F089580E0BD
:101C600008951F93CF93DF9300D0CDB7DEB7182F21
:101C700026E040E855E260E070E087EF95E00E94E2
:101C800074194CE55DE061E070E080E090E00E9456
:101C90000E070E945607113838F06DE371E082E0BC
:101CA00092E00E941D1BFFCF88ED93E00E948715F4
:101CB00080E8EFE6F4E0DF011D928A95E9F78BE416
:101CC000EEE3F5E0DF011D928A95E9F79FEF90932F
:101CD0003E0590933F05198287E48A8329813A81E2
:101CE000309341052093400582E08093420588E0CF
:101CF000E9E5F1E0A6E4B5E001900D928A95E1F7FF
:101D000088E0E9E5F1E0AEE4B5E001900D928A9556
:101D1000E1F788E0E2E6F1E0A6E5B5E001900D929A
:101D20008A95E1F788E0EBE6F1E0AEE5B5E00190F9
:101D30000D928A95E1F780E2E4E7F1E0A6E6B5E0EE
:101D400001900D928A95E1F719821A8229813A81D0
:101D5000309387052093860510936E0490936F044B
:101D60009093700485E08A8389819A8190937204AC
:101D7000809371040F900F90DF91CF911F91089580
:101D80001F93CF93DF9388ED93E00E949315892BE7
:101D9000F1F08091D70381111AC041E050E061E574
:101DA00073E088ED93E00E94B91590915203809101
:101DB00051039F3F99F48F3F61F4809353038093C5
:101DC000540382E090E09093D4038093D30381E0A6
:101DD0008DC0853519F480935203F9CF4091D30318
:101DE0005091D403FA01ED5AFC4F80834F5F5F4F4F
:101DF0005093D4034093D30380935203443051054E
:101E000069F48091550390E0982F8827209156031C
:101E1000820F911D9093D6038093D503C091D50373
:101E2000D091D603CE0104964817590781F663E591
:101E300073E089E895E00E94E11FCC5FC093ED0557
:101E400065EB72E082E092E00E94C91A40916A0458
:101E500050916B0460916C0470916D042AE030E045
:101E600082E092E00E94F21B63EB72E082E092E07B
:101E70000E94C91A65EA72E082E092E00E94C91AE3
:101E800010E0C12FD0E08091D5039091D603049645
:101E9000C817D90788F46DED71E082E092E00E94E6
:101EA000EE1ACD5ADC4F40E150E0688182E092E0CA
:101EB0000E94FF1B1F5FE5CF6EED71E082E092E0B4
:101EC0000E941D1B4091D5035091D6034C5F5F4F7C
:101ED00060E070E083E593E00E94EA1F81E0809378
:101EE000D703109251031092520380E0DF91CF91FB
:101EF0001F910895CF93DF931F92CDB7DEB719825C
:101F000087EF95E00E94AA18898388ED93E00E94EC
:101F1000AB15892B49F041E050E0BE016F5F7F4F68
:101F200088ED93E00E941F1640E150E0698182E055
:101F300092E00E94061C0F90DF91CF910895BF920E
:101F4000CF92DF92EF92FF920F931F93CF93DF9385
:101F50006C018B01B42EC82FDD2DE12CF12CE01685
:101F6000F106B9F0688187EF95E00E940F1982E0D1
:101F7000E816F10448F088818F3F31F465E570E0A0
:101F800087EF95E00E94850D8FEFE81AF80A2196F9
:101F9000E6CF81E0B81223C000916A0410916B046F
:101FA00020916C0430916D040093D4041093D504F7
:101FB0002093D6043093D7041092D804B092D90459
:101FC000A701B6018AED94E0DF91CF911F910F91A7
:101FD000FF90EF90DF90CF90BF900C94E11FDF91C6
:101FE000CF911F910F91FF90EF90DF90CF90BF9016
:101FF0000895CF93DF9380918E05809343056BE422
:1020000070E08EE395E00E941A0E8093880540E010
:102010006BE470E08EE395E00E949F0F65E971E04C
:1020200082E092E00E94EE1A40916A0450916B04A3
:1020300060916C0470916D042AE030E082E092E0DF
:102040000E94F21B6BE371E082E092E00E94EE1AC4
:1020500067E971E082E092E00E94EE1ACEE3D5E0FB
:102060006DED71E082E092E00E94EE1A699140E12C
:1020700050E082E092E00E94FF1B85E0C938D8075B
:1020800079F76EED71E082E092E0DF91CF910C94F0
:102090001D1BEF92FF920F931F93CF93DF93CDB74A
:1020A000DEB72B970FB6F894DEBF0FBECDBF89E029
:1020B000E9E8F5E0DE01119601900D928A95E1F7CD
:1020C0001A8685E08B878A859B859C838B838D818F
:1020D0008F5F8D8369E070E0CE0101960E941A0E39
:1020E000898740E069E070E0CE0101960E949F0F71
:1020F00065E971E082E092E00E94EE1A40916A0484
:1021000050916B0460916C0470916D042AE030E092
:1021100082E092E00E94F21B6BE371E082E092E0C9
:102120000E94EE1A67E971E082E092E00E94EE1AE6
:102130008E010F5F1F4F7E018AE0E80EF11C6DEDEE
:1021400071E082E092E00E94EE1AF80161918F0145
:1021500040E150E082E092E00E94FF1B0E151F0557
:1021600071F76EED71E082E092E00E941D1B2B96EC
:102170000FB6F894DEBF0FBECDBFDF91CF911F9198
:102180000F91FF90EF9008950F931F93CF93DF93DC
:1021900000D000D0CDB7DEB7009191051091920527
:1021A0000E94491088E193E090934E0380934D0381
:1021B0001C830B838C8189838B818A8389819A819B
:1021C0000F900F900F900F90DF91CF911F910F9173
:1021D0000C9418030E94491064E172E082E092E0DE
:1021E0000E940B1B80916A0490916B04A0916C0477
:1021F000B0916D0480935E0490935F04A09360049B
:10220000B09361040895EF92FF920F931F93CF93C1
:10221000DF93CDB7DEB72C970FB6F894DEBF0FBEB5
:10222000CDBF182F092F8AE0E9E8F5E0DE0111960D
:1022300001900D928A95E1F7613009F469C08FEF42
:1022400089838A831B8686E08C872B853C853C832B
:102250002B8382E18D8319876AE070E0CE010196BD
:102260000E941A0E8A8740E06AE070E0CE01019673
:102270000E949F0F6CE072E082E092E00E94C91A17
:1022800040E150E0612F702F82E092E00E94DA1B63
:1022900065E971E082E092E00E94EE1A40916A04E2
:1022A00050916B0460916C0470916D042AE030E0F1
:1022B00082E092E00E94F21B6BE371E082E092E028
:1022C0000E94EE1A67E971E082E092E00E94EE1A45
:1022D0008E010F5F1F4F7E018BE0E80EF11C6DED4C
:1022E00071E082E092E00E94EE1AF80161918F01A4
:1022F00040E150E082E092E00E94FF1B0E151F05B6
:1023000071F76EED71E082E092E00E941D1B16C035
:102310008985823039F0833041F0813049F466EFAD
:1023200071E008C063EE71E005C06EEC71E002C0C0
:1023300060EC71E082E092E00E940B1B2C960FB6DD
:10234000F894DEBF0FBECDBFDF91CF911F910F91EB
:10235000FF90EF900895EF92FF920F931F93CF930A
:10236000DF9300D000D0CDB7DEB788E0E9E8F5E034
:10237000AFE6B4E001900D928A95E1F784E0809396
:10238000730400916E0410E0C80106969C838B8351
:102390008C8189838B818A8389819A81909372044D
:1023A0008093710483E08093770478018AE0E80EDB
:1023B000F11CB7018FE694E00E941A0EF801E15972
:1023C000FB4F818740E0B7018FE694E00E949F0FAA
:1023D00065E971E082E092E00E94EE1A40916A04A1
:1023E00050916B0460916C0470916D042AE030E0B0
:1023F00082E092E00E94F21B6BE371E082E092E0E7
:102400000E94EE1A67E971E082E092E00E94EE1A03
:10241000F12C0F2D10E080916E0490E00A960817C1
:10242000190790F46DED71E082E092E00E94EE1ADF
:10243000F801E159FB4F40E150E0608182E092E019
:102440000E94FF1BF394E5CF6EED71E082E092E015
:102450000F900F900F900F90DF91CF911F910F91E0
:10246000FF90EF900C941D1BEF92FF920F931F9320
:10247000CF93DF93CDB7DEB72B970FB6F894DEBFBF
:102480000FBECDBF8FEF89838A831A8685E08B8745
:102490008A859B859C838B838BE08D838091D3047D
:1024A00091E0980F9093D3048E831F82188669E081
:1024B00070E0CE0101960E941A0E898741E069E022
:1024C00070E0CE0101960E949F0F65E971E082E005
:1024D00092E00E94EE1A40916A0450916B04609160
:1024E0006C0470916D042AE030E082E092E00E947A
:1024F000F21B6BE371E082E092E00E94EE1A67E962
:1025000071E082E092E00E94EE1A8E010F5F1F4F91
:102510007E018AE0E80EF11C6DED71E082E092E050
:102520000E94EE1AF80161918F0140E150E082E0D3
:1025300092E00E94FF1B0E151F0571F76EED71E012
:1025400082E092E00E941D1B2B960FB6F894DEBF2E
:102550000FBECDBFDF91CF911F910F91FF90EF90F4
:102560000895EF92FF920F931F93CF93DF93CDB710
:10257000DEB72C970FB6F894DEBF0FBECDBF9FEF2E
:1025800099839A831B8696E09C872B853C853C83A8
:102590002B8399E09D839091D30421E0290F209310
:1025A000D3049E831F82188689876AE070E0CE017B
:1025B00001960E941A0E8A8741E06AE070E0CE011F
:1025C00001960E949F0F65E971E082E092E00E940F
:1025D000EE1A40916A0450916B0460916C04709102
:1025E0006D042AE030E082E092E00E94F21B6BE38F
:1025F00071E082E092E00E94EE1A67E971E082E009
:1026000092E00E94EE1A8E010F5F1F4F7E018BE059
:10261000E80EF11C6DED71E082E092E00E94EE1A8E
:10262000F80161918F0140E150E082E092E00E9468
:10263000FF1B0E151F0571F76EED71E082E092E051
:102640000E941D1B2C960FB6F894DEBF0FBECDBFA7
:10265000DF91CF911F910F91FF90EF9008954F92CE
:102660005F926F927F92AF92BF92CF92DF92EF9282
:10267000FF920F931F93CF93DF9300D000D0CDB77D
:10268000DEB75C012A013B01013009F4FEC08091F4
:10269000D904813009F4F9C0213009F45AC0C0903E
:1026A0006A04D0906B04E0906C04F0906D0480910B
:1026B000660490916704A0916804B0916904A70131
:1026C0009601281B390B4A0B5B0BDA01C901813DCE
:1026D0009740A105B10558F040916E0450E0B50156
:1026E00088E794E00E94D41FE1E0892B09F4E0E040
:1026F000ACE3B0E0A30192010E94631E409062042B
:10270000509063046090640470906504C418D50808
:10271000E608F7086C157D058E059F05B8F460EA9C
:1027200071E082E092E00E941D1B80916A0490910A
:102730006B04A0916C04B0916D048093620490933B
:102740006304A0936404B093650403C0E13009F00E
:102750009CC000916E0410E0A801B50188E794E0E8
:102760000E94E11FC80106969C838B838C8189831C
:102770008B818A8389819A819093720480937104FA
:1027800085E0809373048091D30491E0980F909337
:10279000D3048093740484E08093770478014AE042
:1027A000E40EF11CB7018FE694E00E941A0EF801C6
:1027B000E159FB4F818741E0B7018FE694E00E9429
:1027C0009F0F80916A0490916B04A0916C04B0916A
:1027D0006D048093660490936704A0936804B0939B
:1027E000690465E971E082E092E00E94EE1A40918E
:1027F0006A0450916B0460916C0470916D042AE03E
:1028000030E082E092E00E94F21B6BE371E082E034
:1028100092E00E94EE1A67E971E082E092E00E9485
:10282000EE1AF12C0F2D10E080916E0490E00A96C4
:102830000817190790F46DED71E082E092E00E94B4
:10284000EE1AF801E159FB4F40E150E0608182E06F
:1028500092E00E94FF1BF394E5CF6EED71E082E001
:1028600092E00F900F900F900F90DF91CF911F91FA
:102870000F91FF90EF90DF90CF90BF90AF907F903F
:102880006F905F904F900C941D1B0F900F900F90C6
:102890000F90DF91CF911F910F91FF90EF90DF90FC
:1028A000CF90BF90AF907F906F905F904F900895C2
:1028B0001F93CF93DF938091D904813009F05CC0DE
:1028C0008091D804823008F04EC080916A049091C3
:1028D0006B04A0916C04B0916D044091D4045091AC
:1028E000D5046091D6047091D704841B950BA60B78
:1028F000B70B893C9105A105B105F0F110E0C12F9E
:10290000D0E080916E0490E00A96C817D907A0F431
:10291000CC52DB4F6E8187EF95E00E940F19123089
:1029200048F08E818F3F31F465E570E087EF95E0E8
:102930000E94850D1F5FE3CF80916A0490916B0424
:10294000A0916C04B0916D048093D4049093D5044D
:10295000A093D604B093D7048091D8048F5F80935E
:10296000D80482E00AC08AE6E4EDF4E0DF011D92BB
:102970008A95E9F781E001C080E0DF91CF911F9156
:102980000895FF920F931F93CF93DF93EC01F62EE0
:102990000E94C00E0E945814813039F465E972E03B
:1029A00082E092E00E940B1B30C0823071F568E734
:1029B00072E082E092E00E94C91A4091D4045091E2
:1029C000D5046091D6047091D7042AE030E082E00B
:1029D00092E00E94F21B6BED71E082E092E00E94B7
:1029E000EE1A4AE050E06091D80482E092E00E9442
:1029F000FF1B6BE371E082E092E00E94EE1A6EED45
:102A000071E082E092E00E941D1B8091D703882331
:102A100009F476C00091ED0510E0B80189E895E071
:102A20000E941A0EF801E857FA4F9081891749F071
:102A300060E081E090E00E9403111092D70382E0F1
:102A400060C00E948C0D813019F466E672E009C006
:102A5000823019F46FE472E004C0833031F46EE226
:102A600072E082E092E00E940B1B80918D0590E065
:102A7000FC013197E131F10598F5EC5CFF4F0C94C6
:102A80005D1E0E94F90F31C080919105813029F0BF
:102A9000823059F50E94AB1128C00E9449104F2D79
:102AA00050E062E975E0CE010E94E11F4091ED0522
:102AB00050E060E070E089E895E00E94EA1F109223
:102AC000D70380E01EC00E9449100FC00E94C410AE
:102AD0000CC00E94EA1009C061E083E090E003C0EE
:102AE00060E082E090E00E9403114091ED0550E02B
:102AF00060E070E089E895E00E94EA1F1092D70339
:102B000081E0DF91CF911F910F91FF900895FC011B
:102B100080E890E091838083CF010696938382833F
:102B2000958384830895FC0122813381848195817A
:102B30002817390769F0AC01421B530B28173907D6
:102B400010F4CA01089580819181840F951F089522
:102B500080E090E00895CF93DF93EC010E949315FD
:102B600028813981A901481B590BCA01DF91CF91F6
:102B700008956F927F928F929F92AF92BF92CF9261
:102B8000DF92EF92FF920F931F93CF93DF9300D0CA
:102B9000CDB7DEB73C016B017A01A12CB12C4C0101
:102BA00086E0880E911CF301628173818481958196
:102BB0006817790760F4C30169837A830E949315CB
:102BC00069817A818E159F0568F47C010BC08401B0
:102BD000061B170BF30180819181080F191FE01666
:102BE000F106F8F4A701C6010E94E11FF3018281FA
:102BF00093818E0D9F1D93838283C7018A0D9B1D38
:102C00000F900F90DF91CF911F910F91FF90EF9058
:102C1000DF90CF90BF90AF909F908F907F906F90FC
:102C20000895A801C6010E94E11FF30193828282E8
:102C3000E01AF10AC00ED11EA00EB11EB4CF8F92C1
:102C40009F92AF92BF92CF92DF92EF92FF920F933B
:102C50001F93CF93DF93EC016B018A01A12CB12C60
:102C60004C0186E0880E911CCE010E94AB1508171E
:102C70001907F0F58C819D812A813B81821793078A
:102C800060F17401E81AF90A28813981E20EF31E15
:102C9000E016F106A8F0A801B6010E94E11F2C8100
:102CA0003D81200F311F3D832C83888199810696B9
:102CB0008C0F9D1F28173907F1F49D828C821BC051
:102CC000A701B6010E94E11F9D828C820E191F0987
:102CD000CE0CDF1CAE0CBF1CC7CFA801B6010E94F2
:102CE000E11F8C819D81800F911F9D838C8303C088
:102CF0008FEF9FEF01C0C8018A0D9B1DDF91CF911F
:102D00001F910F91FF90EF90DF90CF90BF90AF9009
:102D10009F908F9008951F920F920FB60F921124DB
:102D20002F933F938F939F93AF93BF938091EF0522
:102D30009091F005A091F105B091F2053091EE056A
:102D400023E0230F2D3720F40196A11DB11D05C0EE
:102D500026E8230F0296A11DB11D2093EE05809356
:102D6000EF059093F005A093F105B093F2058091E3
:102D7000F3059091F405A091F505B091F605019643
:102D8000A11DB11D8093F3059093F405A093F50563
:102D9000B093F605BF91AF919F918F913F912F9185
:102DA0000F900FBE0F901F9018952FB7F894609159
:102DB000EF057091F0058091F1059091F2052FBF1C
:102DC00008953FB7F8948091F3059091F405A09190
:102DD000F505B091F60526B5A89B05C02F3F19F063
:102DE0000196A11DB11D3FBF6627782F892F9A2F0D
:102DF000620F711D811D911D42E0660F771F881FB4
:102E0000991F4A95D1F70895CF92DF92EF92FF92E2
:102E1000CF93DF936B017C010E94E116EB01C1149B
:102E2000D104E104F10489F00E941D1C0E94E11606
:102E30006C1B7D0B683E734090F381E0C81AD1088B
:102E4000E108F108C851DC4FEACFDF91CF91FF9044
:102E5000EF90DF90CF900895019739F0880F991F78
:102E6000880F991F02970197F1F70895789484B518
:102E7000826084BD84B5816084BD85B5826085BD76
:102E800085B5816085BDEEE6F0E08081816080835C
:102E9000E1E8F0E01082808182608083808181603F
:102EA0008083E0E8F0E0808181608083E1EBF0E006
:102EB000808184608083E0EBF0E0808181608083AA
:102EC000EAE7F0E080818460808380818260808393
:102ED0008081816080838081806880831092C100BE
:102EE00008951F93CF93DF93182FEB0161E00E94A9
:102EF000F917209711F460E004C0CF3FD10539F4F1
:102F000061E0812FDF91CF911F910C943218E12F56
:102F1000F0E0E154FD4FE491E330F9F048F4E130A2
:102F2000B9F0E230A1F584B5806284BDC8BD34C07B
:102F3000E730E9F0E83019F1E43049F5809180009C
:102F4000806280938000D0938B00C0938A0024C05D
:102F500084B5806884BDC7BD1FC080918000806833
:102F600080938000D0938900C093880015C0809121
:102F7000B00080688093B000C093B3000DC0809112
:102F8000B00080628093B000C093B40005C0C03828
:102F9000D1050CF0B5CFAFCFDF91CF911F91089540
:102FA000833081F028F4813099F08230A1F00895C7
:102FB0008730A9F08830B9F08430D1F48091800056
:102FC0008F7D03C0809180008F778093800008956B
:102FD00084B58F7702C084B58F7D84BD08958091BC
:102FE000B0008F7703C08091B0008F7D8093B000D8
:102FF0000895CF93DF9390E0FC01ED52FD4F2491B3
:10300000FC01E951FD4F8491882349F190E0880F3C
:10301000991FFC01E15FFC4FA591B4918B5F9C4F20
:10302000FC01C591D4919FB7611108C0F8948C91AF
:10303000209582238C93888182230AC0623051F4C8
:10304000F8948C91322F309583238C938881822B36
:10305000888304C0F8948C91822B8C939FBFDF915E
:10306000CF9108950F931F93CF93DF931F92CDB706
:10307000DEB7282F30E0F901E154FD4F8491F901CA
:10308000ED52FD4F1491F901E951FD4F04910023D8
:10309000C9F0882321F069830E94D0176981E02F4D
:1030A000F0E0EE0FFF1FEB5FFC4FA591B4919FB7CF
:1030B000F8948C91611103C01095812301C0812B7C
:1030C0008C939FBF0F90DF91CF911F910F91089527
:1030D000CF93DF93282F30E0F901E154FD4F849125
:1030E000F901ED52FD4FD491F901E951FD4FC49121
:1030F000CC2391F081110E94D017EC2FF0E0EE0F5D
:10310000FF1FE550FD4FA591B4912C912D2381E037
:1031100090E021F480E002C080E090E0DF91CF9168
:103120000895FC01818D228D90E0805C9F4F821B71
:1031300091098F7399270895FC01918D828D9817BD
:1031400031F0828DE80FF11D858D90E008958FEFAD
:103150009FEF0895FC01918D828D981761F0828D0B
:10316000DF01A80FB11D5D968C91928D9F5F9F73BB
:10317000928F90E008958FEF9FEF08958EE29AE18D
:10318000892B49F08AE79FE0892B29F00E942E1AAB
:1031900081110C947A0F0895FC01848DDF01A80F32
:1031A000B11DA35ABF4F2C91848D90E001968F736F
:1031B0009927848FA689B7892C93A089B1898C918E
:1031C00080648C93938D848D981306C00288F38954
:1031D000E02D80818F7D80830895CF93DF93EC0174
:1031E000888D8823C9F0EA89FB89808185FD05C027
:1031F000A889B9898C9186FD0FC00FB607FCF5CF61
:10320000808185FFF2CFA889B9898C9185FFEDCFA8
:10321000CE010E94CC18E7CFDF91CF910895CF92D5
:10322000DF92FF920F931F93CF93DF931F92CDB73F
:10323000DEB76C01DC015B969C915B975C968C9190
:103240005C97981307C05096ED91FC91519780813F
:1032500085FD32C0F601038D10E00F5F1F4F0F7325
:103260001127F02EF601848DF81211C00FB607FC5D
:10327000F9CFD6015096ED91FC915197808185FF51
:10328000F1CFC60169830E94CC186981EBCF838D91
:10329000E80FF11DE35AFF4F6083D6015B960C9354
:1032A0005B975296ED91FC91539780818062808369
:1032B00081E058968C930DC0D6015696ED91FC9105
:1032C000579760835096ED91FC915197808180646F
:1032D000808381E090E00F90DF91CF911F910F915B
:1032E000FF90DF90CF900895BF92CF92DF92EF9240
:1032F000FF92CF93DF93EC016A017B01B22EE88944
:10330000F98982E08083411581EE580761057105D6
:10331000A1F060E079E08DE390E0A70196010E94C2
:103320001C1E215031094109510956954795379581
:103330002795211580E1380798F0E889F9891082EE
:1033400060E874E88EE190E0A70196010E941C1EDF
:1033500021503109410951095695479537952795CF
:10336000EC85FD853083EE85FF852083188EEC8902
:10337000FD89B082EA89FB89808180618083EA8946
:10338000FB89808188608083EA89FB8980818068ED
:103390008083EA89FB8980818F7D8083DF91CF9153
:1033A000FF90EF90DF90CF90BF9008951F920F9203
:1033B0000FB60F9211242F938F939F93EF93FF9348
:1033C000E0910706F09108068081E0910D06F091EA
:1033D0000E0682FD12C09081809110068F5F8F7360
:1033E00020911106821751F0E0911006F0E0E950AB
:1033F000FA4F958F8093100601C08081FF91EF9165
:103400009F918F912F910F900FBE0F901F90189545
:103410001F920F920FB60F9211242F933F934F9349
:103420005F936F937F938F939F93AF93BF93EF932C
:10343000FF9387EF95E00E94CC18FF91EF91BF9129
:10344000AF919F918F917F916F915F914F913F913C
:103450002F910F900FBE0F901F90189587EF95E05A
:103460000E94911821E0892B09F420E0822F089511
:103470001092FA051092F90588EE93E0A0E0B0E012
:103480008093FB059093FC05A093FD05B093FE058A
:1034900083EE91E09093F8058093F70585EC90E03A
:1034A000909304068093030684EC90E090930606C4
:1034B0008093050680EC90E09093080680930706C1
:1034C00081EC90E090930A068093090682EC90E0EC
:1034D00090930C0680930B0686EC90E090930E067A
:1034E00080930D061092100610921106109212068B
:1034F00010921306089508950E9436170E947B1AB1
:103500000E946803CEEBD8E10E940E052097E1F3FC
:103510000E94BE18F9CFCF92DF92EF92FF920F93E5
:103520001F93CF93DF936C017A01EB01E60EF71E38
:1035300000E010E0CE15DF0561F06991D601ED9154
:10354000FC910190F081E02DC6010995080F191F2B
:10355000F1CFC801DF91CF911F910F91FF90EF90B4
:10356000DF90CF9008956115710581F0DB010D901A
:103570000020E9F7AD0141505109461B570BDC0112
:10358000ED91FC910280F381E02D099480E090E0C0
:103590000895EF92FF920F931F93CF93DF938C01C7
:1035A000FB01C0E0D0E064917F018FEFE81AF80AD8
:1035B000662361F0D801ED91FC910190F081E02D3E
:1035C000C8010995C80FD91FF701EDCFCE01DF91D2
:1035D000CF911F910F91FF90EF9008950C94B31A23
:1035E000DC01ED91FC910190F081E02D09940F93A5
:1035F0001F93CF93DF93EC016DE00E94F01A8C01D2
:103600006AE0CE010E94F01A800F911FDF91CF91E6
:103610001F910F9108950F931F93CF93DF93EC01A8
:103620000E94C91A8C01CE010E94F71A800F911FC7
:10363000DF91CF911F910F9108950F931F93CF9317
:10364000DF93EC010E94B31A8C01CE010E94F71A9D
:10365000800F911FDF91CF911F910F9108958F924D
:103660009F92AF92BF92CF92DF92EF92FF920F9311
:103670001F93CF93DF93CDB7DEB7A1970FB6F89422
:10368000DEBF0FBECDBF7C01C42EE52FCB01D22EF5
:1036900019A221E02D1510F02AE0D22E8E010F5D27
:1036A0001F4F8D2C912CA12CB12C6C2D7E2FA501A0
:1036B00094010E941C1E8C2DD29E80191124015051
:1036C00011098A3014F4805D01C0895CF80180839F
:1036D000211531054105510521F0C22EE32FCA0104
:1036E000E4CFB801C7010E94B31AA1960FB6F894AF
:1036F000DEBF0FBECDBFDF91CF911F910F91FF9025
:10370000EF90DF90CF90BF90AF909F908F900895F3
:10371000CF92DF92EF92FF920F931F93CF93DF939D
:10372000EC016A017B012115310579F4E881F98109
:103730000190F081E02D642FDF91CF911F910F91C7
:10374000FF90EF90DF90CF9009942A303105E9F493
:1037500077FF1AC06DE20E94F01A8C0144275527AA
:10376000BA014C195D096E097F092AE0CE010E9459
:103770002F1B800F911FDF91CF911F910F91FF9011
:10378000EF90DF90CF9008952AE0B701A601CE0117
:10379000DF91CF911F910F91FF90EF90DF90CF902D
:1037A0000C942F1B9A01AB01662757FD6095762F6D
:1037B0000C94881B0F931F93CF93DF93EC019A0116
:1037C000AB01662757FD6095762F0E94881B8C0100
:1037D000CE010E94F71A800F911FDF91CF911F91A8
:1037E0000F9108952115310541F4DC01ED91FC9113
:1037F0000190F081E02D642F09940C942F1B9A0105
:10380000462F50E060E070E00C94F21B0F931F9382
:10381000CF93DF93EC019A01462F50E060E070E017
:103820000E94F21B8C01CE010E94F71A800F911F9B
:10383000DF91CF911F910F91089508955058BB27A4
:10384000AA270ED048C139D130F03ED120F031F452
:103850009F3F11F41EF42EC10EF4E095E7FB24C146
:10386000E92F4AD180F3BA176207730784079507D7
:1038700018F071F49EF562C10EF4E0950B2EBA2F8C
:10388000A02D0B01B90190010C01CA01A001112466
:10389000FF27591B99F0593F50F4503E68F11A1612
:1038A000F040A22F232F342F4427585FF3CF4695A3
:1038B00037952795A795F0405395C9F77EF41F16C5
:1038C000BA0B620B730B840BBAF09150A1F0FF0F8F
:1038D000BB1F661F771F881FC2F70EC0BA0F621F7B
:1038E000731F841F48F4879577956795B795F7956B
:1038F0009E3F08F0B3CF9395880F08F09927EE0FFD
:103900009795879508950CD0E6C0DED040F0D5D0CD
:1039100030F021F45F3F19F0C7C0511110C1CAC087
:10392000EBD098F39923C9F35523B1F3951B550BAD
:10393000BB27AA2762177307840738F09F5F5F4F82
:10394000220F331F441FAA1FA9F333D00E2E3AF0C3
:10395000E0E830D091505040E695001CCAF729D0DD
:10396000FE2F27D0660F771F881FBB1F261737072C
:103970004807AB07B0E809F0BB0B802DBF01FF275C
:1039800093585F4F2AF09E3F510568F08DC0D7C015
:103990005F3FECF3983EDCF3869577956795B79596
:1039A000F7959F5FC9F7880F911D9695879597F9B1
:1039B0000895E1E0660F771F881FBB1F621773072A
:1039C0008407BA0720F0621B730B840BBA0BEE1F3F
:1039D00088F7E095089598D088F09F5790F0B92F18
:1039E0009927B751A0F0D1F0660F771F881F991F54
:1039F0001AF0BA95C9F712C0B13081F09FD0B1E08A
:103A000008959CC0672F782F8827B85F39F0B93F99
:103A1000CCF3869577956795B395D9F73EF4909555
:103A20008095709561957F4F8F4F9F4F0895E894D3
:103A300009C097FB3EF490958095709561957F4FF6
:103A40008F4F9F4F9923A9F0F92F96E9BB279395A4
:103A5000F695879577956795B795F111F8CFFAF4B4
:103A6000BB0F11F460FF1BC06F5F7F4F8F4F9F4FE5
:103A700016C0882311F096E911C0772321F09EE843
:103A8000872F762F05C0662371F096E8862F70E0A9
:103A900060E02AF09A95660F771F881FDAF7880F83
:103AA0009695879597F9089597F99F6780E870E054
:103AB00060E008959FEF80EC089500240A941616A4
:103AC000170618060906089500240A94121613060C
:103AD000140605060895092E0394000C11F488239A
:103AE00052F0BB0F40F4BF2B11F460FF04C06F5FB6
:103AF0007F4F8F4F9F4F089557FD9058440F551F8C
:103B000059F05F3F71F04795880F97FB991F61F05F
:103B10009F3F79F087950895121613061406551FD6
:103B2000F2CF4695F1DF08C0161617061806991F42
:103B3000F1CF86957105610508940895E894BB2737
:103B400066277727CB0197F908950BD0C4CFB5DF4F
:103B500028F0BADF18F0952309F0A6CFABCF1124D7
:103B6000EECFCADFA0F3959FD1F3950F50E0551F1C
:103B7000629FF001729FBB27F00DB11D639FAA27C2
:103B8000F00DB11DAA1F649F6627B00DA11D661F11
:103B9000829F2227B00DA11D621F739FB00DA11D32
:103BA000621F839FA00D611D221F749F3327A00DEC
:103BB000611D231F849F600D211D822F762F6A2F88
:103BC00011249F5750408AF0E1F088234AF0EE0F0D
:103BD000FF1FBB1F661F771F881F91505040A9F71A
:103BE0009E3F510570F060CFAACF5F3FECF3983E47
:103BF000DCF3869577956795B795F795E7959F5F81
:103C0000C1F7FE2B880F911D9695879597F908951A
:103C100097FB072E16F4009407D077FD09D00E9479
:103C20006E1E07FC05D03EF4909581959F4F089538
:103C3000709561957F4F0895A1E21A2EAA1BBB1BB8
:103C4000FD010DC0AA1FBB1FEE1FFF1FA217B30768
:103C5000E407F50720F0A21BB30BE40BF50B661F7E
:103C6000771F881F991F1A9469F760957095809542
:103C700090959B01AC01BD01CF010895052E97FBE6
:103C80001EF400940E94551E57FD07D00E941C1E72
:103C900007FC03D04EF40C94551E5095409530957A
:103CA00021953F4F4F4F5F4F0895909580957095A8
:103CB00061957F4F8F4F9F4F0895EE0FFF1F059027
:103CC000F491E02D09940E94821EA59F900DB49F4F
:103CD000900DA49F800D911D11240895AA1BBB1B5C
:103CE00051E107C0AA1FBB1FA617B70710F0A61BFC
:103CF000B70B881F991F5A95A9F780959095BC011D
:103D0000CD010895A29FB001B39FC001A39F700D84
:103D1000811D1124911DB29F700D811D1124911DD3
:103D200008950F931F93CF93DF93869F8001879F02
:103D3000100D969F100D1124C8010E94AD1EEC01BC
:103D4000009729F0A80160E070E00E94EA1FCE0110
:103D5000DF91CF911F910F910895CF93DF93823020
:103D6000910510F482E090E0E0919606F0919706BC
:103D700020E030E0A0E0B0E0309739F1408151819F
:103D800048175907B8F04817590771F48281938191
:103D9000109729F013969C938E9312972CC09093B2
:103DA00097068093960627C02115310531F04217FA
:103DB000530718F0A901DB0101C0EF019A01BD0111
:103DC000DF010280F381E02DD7CF21153105F9F015
:103DD000281B390B2430310580F48A819B816115C1
:103DE000710521F0FB019383828304C090939706B1
:103DF00080939606FE01329644C0FE01E20FF31F47
:103E00008193919322503109398328833AC02091BC
:103E1000940630919506232B41F4209102013091B4
:103E20000301309395062093940620910001309170
:103E300001012115310541F42DB73EB74091040130
:103E400050910501241B350BE0919406F0919506E5
:103E5000E217F307A0F42E1B3F0B2817390778F061
:103E6000AC014E5F5F4F2417350748F04E0F5F1FC0
:103E700050939506409394068193919302C0E0E09D
:103E8000F0E0CF01DF91CF910895CF93DF930097BA
:103E900009F487C0FC01329713821282C091960602
:103EA000D0919706209781F420813181280F391F06
:103EB00080919406909195068217930779F5F09377
:103EC0009506E09394066DC0DE0120E030E0AE1769
:103ED000BF0750F412964D915C9113979D014115C7
:103EE000510509F1DA01F3CFB383A28340815181F7
:103EF000840F951F8A179B0771F48D919C911197E0
:103F0000840F951F02969183808312968D919C91C8
:103F10001397938382832115310529F4F093970633
:103F2000E09396063EC0D9011396FC93EE93129748
:103F30004D915D91A40FB51FEA17FB0779F48081BD
:103F40009181840F951F0296D90111969C938E93AF
:103F50008281938113969C938E931297E0E0F0E018
:103F60008A819B81009719F0FE01EC01F9CFCE0107
:103F7000029628813981820F931F209194063091F7
:103F800095062817390769F4309729F41092970697
:103F90001092960602C013821282D0939506C093A7
:103FA0009406DF91CF910895FB01DC0104C08D914F
:103FB0000190801921F441505040C8F7881B990B9B
:103FC0000895FB01DC0102C001900D924150504068
:103FD000D8F70895DC0101C06D9341505040E0F7DF
:103FE000089513E0C0E2D3E004C0FE010E945F1E0A
:0C3FF0002296C232D107C9F7F894FFCF27
:103FFC0000009806800057324D2D3E576966695F68
:10400C00436F6E6E436C6F756473000000000008A4
:10401C00098B1A7409E7085A098C0900000000C3BF
:10402C000B960B6B0B730B860B950B5D005761722C
:10403C006E696E672050305F4C656E206F75742012
:10404C006F662072616E6765003030303030303012
:10405C0034003032303330303030003032303330A6
:10406C0030303100366633303734666534333839A6
:10407C003435343761346631333134626437653307
:10408C0061653062005B00204D43552020203A00D2
:10409C0025252525252525252525252525252531B8
:1040AC0030206D696E7574657320726567756C610F
:1040BC0072207265706F7274696E672525252525CF
:1040CC002525252525252525252500202F20000003
:1040DC000000000F198B1A9118AA189C18ED1800E3
:00000001FF
